{
  "contractName": "Auction",
  "abi": [
    {
      "inputs": [],
      "payable": false,
      "stateMutability": "nonpayable",
      "type": "constructor"
    },
    {
      "anonymous": false,
      "inputs": [
        {
          "indexed": false,
          "internalType": "string",
          "name": "matchId",
          "type": "string"
        },
        {
          "indexed": false,
          "internalType": "address",
          "name": "auctionCreator",
          "type": "address"
        },
        {
          "indexed": false,
          "internalType": "uint256",
          "name": "maxWinning",
          "type": "uint256"
        },
        {
          "indexed": false,
          "internalType": "uint256",
          "name": "ticketPrice",
          "type": "uint256"
        },
        {
          "indexed": false,
          "internalType": "uint256",
          "name": "rewardPerTicket",
          "type": "uint256"
        },
        {
          "indexed": false,
          "internalType": "string",
          "name": "tokenName",
          "type": "string"
        }
      ],
      "name": "CreateAuctionEvent",
      "type": "event"
    },
    {
      "anonymous": false,
      "inputs": [
        {
          "indexed": false,
          "internalType": "string",
          "name": "matchId",
          "type": "string"
        },
        {
          "indexed": false,
          "internalType": "address",
          "name": "player",
          "type": "address"
        },
        {
          "indexed": false,
          "internalType": "uint256",
          "name": "depositAmount",
          "type": "uint256"
        },
        {
          "indexed": false,
          "internalType": "uint256",
          "name": "ticketCount",
          "type": "uint256"
        }
      ],
      "name": "DepositEvent",
      "type": "event"
    },
    {
      "anonymous": false,
      "inputs": [
        {
          "indexed": false,
          "internalType": "string",
          "name": "matchId",
          "type": "string"
        },
        {
          "indexed": false,
          "internalType": "address",
          "name": "winner",
          "type": "address"
        },
        {
          "indexed": false,
          "internalType": "uint256",
          "name": "winningOrder",
          "type": "uint256"
        }
      ],
      "name": "PublishedEvent",
      "type": "event"
    },
    {
      "constant": true,
      "inputs": [
        {
          "internalType": "uint256",
          "name": "lower_bound",
          "type": "uint256"
        },
        {
          "internalType": "uint256",
          "name": "upper_bound",
          "type": "uint256"
        },
        {
          "internalType": "uint256",
          "name": "blockNumber",
          "type": "uint256"
        },
        {
          "internalType": "address",
          "name": "previousWinner",
          "type": "address"
        }
      ],
      "name": "randrange",
      "outputs": [
        {
          "internalType": "uint256",
          "name": "",
          "type": "uint256"
        }
      ],
      "payable": false,
      "stateMutability": "view",
      "type": "function"
    },
    {
      "constant": false,
      "inputs": [
        {
          "internalType": "string",
          "name": "matchId",
          "type": "string"
        },
        {
          "internalType": "uint64",
          "name": "expiryDate",
          "type": "uint64"
        },
        {
          "internalType": "uint160",
          "name": "futureBlock",
          "type": "uint160"
        },
        {
          "internalType": "uint32",
          "name": "maxWinning",
          "type": "uint32"
        },
        {
          "internalType": "uint96",
          "name": "ticketPrice",
          "type": "uint96"
        },
        {
          "internalType": "uint96",
          "name": "rewardPerTicket",
          "type": "uint96"
        }
      ],
      "name": "auction",
      "outputs": [],
      "payable": true,
      "stateMutability": "payable",
      "type": "function"
    },
    {
      "constant": false,
      "inputs": [
        {
          "internalType": "string",
          "name": "matchId",
          "type": "string"
        }
      ],
      "name": "deposit",
      "outputs": [],
      "payable": true,
      "stateMutability": "payable",
      "type": "function"
    },
    {
      "constant": false,
      "inputs": [
        {
          "internalType": "string",
          "name": "matchId",
          "type": "string"
        }
      ],
      "name": "publish_lottery_result",
      "outputs": [],
      "payable": false,
      "stateMutability": "nonpayable",
      "type": "function"
    },
    {
      "constant": false,
      "inputs": [
        {
          "internalType": "string",
          "name": "matchId",
          "type": "string"
        }
      ],
      "name": "withdraw",
      "outputs": [
        {
          "internalType": "bool",
          "name": "",
          "type": "bool"
        }
      ],
      "payable": false,
      "stateMutability": "nonpayable",
      "type": "function"
    }
  ],
  "bytecode": "0x608060405234801561001057600080fd5b50612b77806100206000396000f3fe60806040526004361061004a5760003560e01c80630bc0de211461004f5780632a4181361461017e57806331fb67c2146102015780634cad8608146102e1578063a26e1186146103a9575b600080fd5b61017c600480360360c081101561006557600080fd5b810190808035906020019064010000000081111561008257600080fd5b82018360208201111561009457600080fd5b803590602001918460018302840111640100000000831117156100b657600080fd5b91908080601f016020809104026020016040519081016040528093929190818152602001838380828437600081840152601f19601f820116905080830192505050505050509192919290803567ffffffffffffffff169060200190929190803573ffffffffffffffffffffffffffffffffffffffff169060200190929190803563ffffffff16906020019092919080356bffffffffffffffffffffffff16906020019092919080356bffffffffffffffffffffffff169060200190929190505050610464565b005b34801561018a57600080fd5b506101eb600480360360808110156101a157600080fd5b81019080803590602001909291908035906020019092919080359060200190929190803573ffffffffffffffffffffffffffffffffffffffff169060200190929190505050610c35565b6040518082815260200191505060405180910390f35b34801561020d57600080fd5b506102c76004803603602081101561022457600080fd5b810190808035906020019064010000000081111561024157600080fd5b82018360208201111561025357600080fd5b8035906020019184600183028401116401000000008311171561027557600080fd5b91908080601f016020809104026020016040519081016040528093929190818152602001838380828437600081840152601f19601f820116905080830192505050505050509192919290505050610d64565b604051808215151515815260200191505060405180910390f35b3480156102ed57600080fd5b506103a76004803603602081101561030457600080fd5b810190808035906020019064010000000081111561032157600080fd5b82018360208201111561033357600080fd5b8035906020019184600183028401116401000000008311171561035557600080fd5b91908080601f016020809104026020016040519081016040528093929190818152602001838380828437600081840152601f19601f8201169050808301925050505050505091929192905050506116c1565b005b610462600480360360208110156103bf57600080fd5b81019080803590602001906401000000008111156103dc57600080fd5b8201836020820111156103ee57600080fd5b8035906020019184600183028401116401000000008311171561041057600080fd5b91908080601f016020809104026020016040519081016040528093929190818152602001838380828437600081840152601f19601f820116905080830192505050505050509192919290505050611f65565b005b60003390506000828563ffffffff16026bffffffffffffffffffffffff16905034816fffffffffffffffffffffffffffffffff16146104ee576040517f08c379a00000000000000000000000000000000000000000000000000000000081526004018080602001828103825260408152602001806129606040913960400191505060405180910390fd5b600073ffffffffffffffffffffffffffffffffffffffff166000896040518082805190602001908083835b6020831061053c5780518252602082019150602081019050602083039250610519565b6001836020036101000a038019825116818451168082178552505050505050905001915050908152602001604051809103902060000160009054906101000a900473ffffffffffffffffffffffffffffffffffffffff1673ffffffffffffffffffffffffffffffffffffffff16146105ff576040517f08c379a000000000000000000000000000000000000000000000000000000000815260040180806020018281038252602681526020018061290c6026913960400191505060405180910390fd5b428767ffffffffffffffff161161067e576040517f08c379a00000000000000000000000000000000000000000000000000000000081526004018080602001828103825260208152602001807f65787069727944617465206d75737420626520696e207468652066757475726581525060200191505060405180910390fd5b438673ffffffffffffffffffffffffffffffffffffffff16116106ec576040517f08c379a000000000000000000000000000000000000000000000000000000000815260040180806020018281038252602e815260200180612932602e913960400191505060405180910390fd5b6000836bffffffffffffffffffffffff1611610753576040517f08c379a00000000000000000000000000000000000000000000000000000000081526004018080602001828103825260268152602001806129a06026913960400191505060405180910390fd5b60008563ffffffff16116107b2576040517f08c379a0000000000000000000000000000000000000000000000000000000008152600401808060200182810382526027815260200180612a146027913960400191505060405180910390fd5b6000846bffffffffffffffffffffffff1611610819576040517f08c379a0000000000000000000000000000000000000000000000000000000008152600401808060200182810382526022815260200180612a696022913960400191505060405180910390fd5b6040518061010001604052808373ffffffffffffffffffffffffffffffffffffffff168152602001846bffffffffffffffffffffffff168152602001826fffffffffffffffffffffffffffffffff168152602001856bffffffffffffffffffffffff1681526020018867ffffffffffffffff1681526020018773ffffffffffffffffffffffffffffffffffffffff168152602001600063ffffffff1681526020018663ffffffff168152506000896040518082805190602001908083835b602083106108fa57805182526020820191506020810190506020830392506108d7565b6001836020036101000a038019825116818451168082178552505050505050905001915050908152602001604051809103902060008201518160000160006101000a81548173ffffffffffffffffffffffffffffffffffffffff021916908373ffffffffffffffffffffffffffffffffffffffff16021790555060208201518160000160146101000a8154816bffffffffffffffffffffffff02191690836bffffffffffffffffffffffff16021790555060408201518160010160006101000a8154816fffffffffffffffffffffffffffffffff02191690836fffffffffffffffffffffffffffffffff16021790555060608201518160010160106101000a8154816bffffffffffffffffffffffff02191690836bffffffffffffffffffffffff16021790555060808201518160020160006101000a81548167ffffffffffffffff021916908367ffffffffffffffff16021790555060a08201518160020160086101000a81548173ffffffffffffffffffffffffffffffffffffffff021916908373ffffffffffffffffffffffffffffffffffffffff16021790555060c082015181600201601c6101000a81548163ffffffff021916908363ffffffff16021790555060e08201518160030160006101000a81548163ffffffff021916908363ffffffff1602179055509050507f857725c762cb35c9f0e64b372026ca131b53a6f24e95a3f88d1e30fc38f76652888387878760405180806020018673ffffffffffffffffffffffffffffffffffffffff1673ffffffffffffffffffffffffffffffffffffffff1681526020018563ffffffff168152602001846bffffffffffffffffffffffff168152602001836bffffffffffffffffffffffff16815260200180602001838103835288818151815260200191508051906020019080838360005b83811015610bb8578082015181840152602081019050610b9d565b50505050905090810190601f168015610be55780820380516001836020036101000a031916815260200191505b50838103825260038152602001807f42414d000000000000000000000000000000000000000000000000000000000081525060200197505050505050505060405180910390a15050505050505050565b6000838510610c8f576040517f08c379a0000000000000000000000000000000000000000000000000000000008152600401808060200182810382526029815260200180612b1a6029913960400191505060405180910390fd5b60008311610ce8576040517f08c379a0000000000000000000000000000000000000000000000000000000008152600401808060200182810382526022815260200180612af86022913960400191505060405180910390fd5b84858503600185034084604051602001808381526020018273ffffffffffffffffffffffffffffffffffffffff1673ffffffffffffffffffffffffffffffffffffffff1660601b8152601401925050506040516020818303038152906040528051906020012060001c81610d5857fe5b06019050949350505050565b6000806002836040518082805190602001908083835b60208310610d9d5780518252602082019150602081019050602083039250610d7a565b6001836020036101000a038019825116818451168082178552505050505050905001915050908152602001604051809103902060003373ffffffffffffffffffffffffffffffffffffffff1673ffffffffffffffffffffffffffffffffffffffff1681526020019081526020016000209050610e17612856565b6000846040518082805190602001908083835b60208310610e4d5780518252602082019150602081019050602083039250610e2a565b6001836020036101000a0380198251168184511680821785525050505050509050019150509081526020016040518091039020604051806101000160405290816000820160009054906101000a900473ffffffffffffffffffffffffffffffffffffffff1673ffffffffffffffffffffffffffffffffffffffff1673ffffffffffffffffffffffffffffffffffffffff1681526020016000820160149054906101000a90046bffffffffffffffffffffffff166bffffffffffffffffffffffff166bffffffffffffffffffffffff1681526020016001820160009054906101000a90046fffffffffffffffffffffffffffffffff166fffffffffffffffffffffffffffffffff166fffffffffffffffffffffffffffffffff1681526020016001820160109054906101000a90046bffffffffffffffffffffffff166bffffffffffffffffffffffff166bffffffffffffffffffffffff1681526020016002820160009054906101000a900467ffffffffffffffff1667ffffffffffffffff1667ffffffffffffffff1681526020016002820160089054906101000a900473ffffffffffffffffffffffffffffffffffffffff1673ffffffffffffffffffffffffffffffffffffffff1673ffffffffffffffffffffffffffffffffffffffff16815260200160028201601c9054906101000a900463ffffffff1663ffffffff1663ffffffff1681526020016003820160009054906101000a900463ffffffff1663ffffffff1663ffffffff168152505090506110fe8160e0015163ffffffff166001866040518082805190602001908083835b602083106110c2578051825260208201915060208101905060208303925061109f565b6001836020036101000a03801982511681845116808217855250505050505090500191505090815260200160405180910390208054905061283d565b8160c0015163ffffffff161461115f576040517f08c379a0000000000000000000000000000000000000000000000000000000008152600401808060200182810382526044815260200180612a8b6044913960600191505060405180910390fd5b60008260000160009054906101000a90047bffffffffffffffffffffffffffffffffffffffffffffffffffffffff167bffffffffffffffffffffffffffffffffffffffffffffffffffffffff1611611202576040517f08c379a000000000000000000000000000000000000000000000000000000000815260040180806020018281038252602b8152602001806129c6602b913960400191505060405180910390fd5b60008260000160009054906101000a90047bffffffffffffffffffffffffffffffffffffffffffffffffffffffff169050600083600001601c9054906101000a900463ffffffff16905060008163ffffffff1611156115a857600084600001601c6101000a81548163ffffffff021916908363ffffffff160217905550600080876040518082805190602001908083835b602083106112b65780518252602082019150602081019050602083039250611293565b6001836020036101000a038019825116818451168082178552505050505050905001915050908152602001604051809103902060000160149054906101000a90046bffffffffffffffffffffffff168263ffffffff16026bffffffffffffffffffffffff1690503373ffffffffffffffffffffffffffffffffffffffff166108fc826fffffffffffffffffffffffffffffffff169081150290604051600060405180830381858888f19350505050611399578185600001601c6101000a81548163ffffffff021916908363ffffffff1602179055506000955050505050506116bc565b806000886040518082805190602001908083835b602083106113d057805182526020820191506020810190506020830392506113ad565b6001836020036101000a038019825116818451168082178552505050505050905001915050908152602001604051809103902060010160008282829054906101000a90046fffffffffffffffffffffffffffffffff160392506101000a8154816fffffffffffffffffffffffffffffffff02191690836fffffffffffffffffffffffffffffffff1602179055508163ffffffff166000886040518082805190602001908083835b6020831061149a5780518252602082019150602081019050602083039250611477565b6001836020036101000a038019825116818451168082178552505050505050905001915050908152602001604051809103902060010160109054906101000a90046bffffffffffffffffffffffff16026bffffffffffffffffffffffff168560000160008282829054906101000a90047bffffffffffffffffffffffffffffffffffffffffffffffffffffffff160392506101000a8154817bffffffffffffffffffffffffffffffffffffffffffffffffffffffff02191690837bffffffffffffffffffffffffffffffffffffffffffffffffffffffff1602179055508460000160009054906101000a90047bffffffffffffffffffffffffffffffffffffffffffffffffffffffff169250505b60008460000160006101000a8154817bffffffffffffffffffffffffffffffffffffffffffffffffffffffff02191690837bffffffffffffffffffffffffffffffffffffffffffffffffffffffff1602179055503373ffffffffffffffffffffffffffffffffffffffff166108fc837bffffffffffffffffffffffffffffffffffffffffffffffffffffffff169081150290604051600060405180830381858888f193505050506116b357818460000160006101000a8154817bffffffffffffffffffffffffffffffffffffffffffffffffffffffff02191690837bffffffffffffffffffffffffffffffffffffffffffffffffffffffff16021790555060009450505050506116bc565b60019450505050505b919050565b6116c9612856565b6000826040518082805190602001908083835b602083106116ff57805182526020820191506020810190506020830392506116dc565b6001836020036101000a0380198251168184511680821785525050505050509050019150509081526020016040518091039020604051806101000160405290816000820160009054906101000a900473ffffffffffffffffffffffffffffffffffffffff1673ffffffffffffffffffffffffffffffffffffffff1673ffffffffffffffffffffffffffffffffffffffff1681526020016000820160149054906101000a90046bffffffffffffffffffffffff166bffffffffffffffffffffffff166bffffffffffffffffffffffff1681526020016001820160009054906101000a90046fffffffffffffffffffffffffffffffff166fffffffffffffffffffffffffffffffff166fffffffffffffffffffffffffffffffff1681526020016001820160109054906101000a90046bffffffffffffffffffffffff166bffffffffffffffffffffffff166bffffffffffffffffffffffff1681526020016002820160009054906101000a900467ffffffffffffffff1667ffffffffffffffff1667ffffffffffffffff1681526020016002820160089054906101000a900473ffffffffffffffffffffffffffffffffffffffff1673ffffffffffffffffffffffffffffffffffffffff1673ffffffffffffffffffffffffffffffffffffffff16815260200160028201601c9054906101000a900463ffffffff1663ffffffff1663ffffffff1681526020016003820160009054906101000a900463ffffffff1663ffffffff1663ffffffff1681525050905060008160a0015173ffffffffffffffffffffffffffffffffffffffff16905060008260c0015163ffffffff16905060006001856040518082805190602001908083835b602083106119965780518252602082019150602081019050602083039250611973565b6001836020036101000a038019825116818451168082178552505050505050905001915050908152602001604051809103902090508360e0015163ffffffff168210611a4a576040517f08c379a00000000000000000000000000000000000000000000000000000000081526004018080602001828103825260128152602001807f6d617857696e6e696e672072656163686564000000000000000000000000000081525060200191505060405180910390fd5b600080905060008560c0015163ffffffff161115611a9f57816001840381548110611a7157fe5b9060005260206000200160009054906101000a900473ffffffffffffffffffffffffffffffffffffffff1690505b6000838484805490500360018703408444604051602001808481526020018373ffffffffffffffffffffffffffffffffffffffff1673ffffffffffffffffffffffffffffffffffffffff1660601b815260140182815260200193505050506040516020818303038152906040528051906020012060001c81611b1d57fe5b060190506000838281548110611b2f57fe5b9060005260206000200160009054906101000a900473ffffffffffffffffffffffffffffffffffffffff169050838281548110611b6857fe5b9060005260206000200160009054906101000a900473ffffffffffffffffffffffffffffffffffffffff16848681548110611b9f57fe5b9060005260206000200160009054906101000a900473ffffffffffffffffffffffffffffffffffffffff16858781548110611bd657fe5b906000526020600020016000878681548110611bee57fe5b9060005260206000200160008491906101000a81548173ffffffffffffffffffffffffffffffffffffffff021916908373ffffffffffffffffffffffffffffffffffffffff1602179055508391906101000a81548173ffffffffffffffffffffffffffffffffffffffff021916908373ffffffffffffffffffffffffffffffffffffffff16021790555050506002886040518082805190602001908083835b60208310611cb05780518252602082019150602081019050602083039250611c8d565b6001836020036101000a038019825116818451168082178552505050505050905001915050908152602001604051809103902060008273ffffffffffffffffffffffffffffffffffffffff1673ffffffffffffffffffffffffffffffffffffffff168152602001908152602001600020600001601c81819054906101000a900463ffffffff168092919060010191906101000a81548163ffffffff021916908363ffffffff160217905550506000886040518082805190602001908083835b60208310611d925780518252602082019150602081019050602083039250611d6f565b6001836020036101000a0380198251168184511680821785525050505050509050019150509081526020016040518091039020600201601c81819054906101000a900463ffffffff168092919060010191906101000a81548163ffffffff021916908363ffffffff160217905550507f8d63c4c9d30473d0d14a2732cca1fdcda269a8342cda3aa92879974033e5c685888260008b6040518082805190602001908083835b60208310611e5a5780518252602082019150602081019050602083039250611e37565b6001836020036101000a0380198251168184511680821785525050505050509050019150509081526020016040518091039020600201601c9054906101000a900463ffffffff1660405180806020018473ffffffffffffffffffffffffffffffffffffffff1673ffffffffffffffffffffffffffffffffffffffff1681526020018363ffffffff168152602001828103825285818151815260200191508051906020019080838360005b83811015611f1f578082015181840152602081019050611f04565b50505050905090810190601f168015611f4c5780820380516001836020036101000a031916815260200191505b5094505050505060405180910390a15050505050505050565b80600080826040518082805190602001908083835b60208310611f9d5780518252602082019150602081019050602083039250611f7a565b6001836020036101000a03801982511681845116808217855250505050505090500191505090815260200160405180910390209050600073ffffffffffffffffffffffffffffffffffffffff168160000160009054906101000a900473ffffffffffffffffffffffffffffffffffffffff1673ffffffffffffffffffffffffffffffffffffffff161415612099576040517f08c379a00000000000000000000000000000000000000000000000000000000081526004018080602001828103825260128152602001807f43726561746f7220697320696e76616c6964000000000000000000000000000081525060200191505060405180910390fd5b6120a1612856565b6000846040518082805190602001908083835b602083106120d757805182526020820191506020810190506020830392506120b4565b6001836020036101000a0380198251168184511680821785525050505050509050019150509081526020016040518091039020604051806101000160405290816000820160009054906101000a900473ffffffffffffffffffffffffffffffffffffffff1673ffffffffffffffffffffffffffffffffffffffff1673ffffffffffffffffffffffffffffffffffffffff1681526020016000820160149054906101000a90046bffffffffffffffffffffffff166bffffffffffffffffffffffff166bffffffffffffffffffffffff1681526020016001820160009054906101000a90046fffffffffffffffffffffffffffffffff166fffffffffffffffffffffffffffffffff166fffffffffffffffffffffffffffffffff1681526020016001820160109054906101000a90046bffffffffffffffffffffffff166bffffffffffffffffffffffff166bffffffffffffffffffffffff1681526020016002820160009054906101000a900467ffffffffffffffff1667ffffffffffffffff1667ffffffffffffffff1681526020016002820160089054906101000a900473ffffffffffffffffffffffffffffffffffffffff1673ffffffffffffffffffffffffffffffffffffffff1673ffffffffffffffffffffffffffffffffffffffff16815260200160028201601c9054906101000a900463ffffffff1663ffffffff1663ffffffff1681526020016003820160009054906101000a900463ffffffff1663ffffffff1663ffffffff168152505090506000349050600082606001516bffffffffffffffffffffffff1690506000339050600082847bffffffffffffffffffffffffffffffffffffffffffffffffffffffff168161235257fe5b04905042856080015167ffffffffffffffff16116123d8576040517f08c379a00000000000000000000000000000000000000000000000000000000081526004018080602001828103825260108152602001807f4d6174636820697320657870697265640000000000000000000000000000000081525060200191505060405180910390fd5b6000847bffffffffffffffffffffffffffffffffffffffffffffffffffffffff161161244f576040517f08c379a00000000000000000000000000000000000000000000000000000000081526004018080602001828103825260238152602001806129f16023913960400191505060405180910390fd5b600083857bffffffffffffffffffffffffffffffffffffffffffffffffffffffff168161247857fe5b06146124cf576040517f08c379a000000000000000000000000000000000000000000000000000000000815260040180806020018281038252602e815260200180612a3b602e913960400191505060405180910390fd5b6005811115612529576040517f08c379a0000000000000000000000000000000000000000000000000000000008152600401808060200182810382526029815260200180612acf6029913960400191505060405180910390fd5b60008090505b8181101561260f576001896040518082805190602001908083835b6020831061256d578051825260208201915060208101905060208303925061254a565b6001836020036101000a03801982511681845116808217855250505050505090500191505090815260200160405180910390208390806001815401808255809150509060018203906000526020600020016000909192909190916101000a81548173ffffffffffffffffffffffffffffffffffffffff021916908373ffffffffffffffffffffffffffffffffffffffff1602179055505080600101905061252f565b50836002896040518082805190602001908083835b602083106126475780518252602082019150602081019050602083039250612624565b6001836020036101000a038019825116818451168082178552505050505050905001915050908152602001604051809103902060008473ffffffffffffffffffffffffffffffffffffffff1673ffffffffffffffffffffffffffffffffffffffff16815260200190815260200160002060000160008282829054906101000a90047bffffffffffffffffffffffffffffffffffffffffffffffffffffffff160192506101000a8154817bffffffffffffffffffffffffffffffffffffffffffffffffffffffff02191690837bffffffffffffffffffffffffffffffffffffffffffffffffffffffff1602179055507f92601632002667117695ed40cf2ad65114ec345add12cbcb4d321e51fd5f1e6d8883868460405180806020018573ffffffffffffffffffffffffffffffffffffffff1673ffffffffffffffffffffffffffffffffffffffff168152602001847bffffffffffffffffffffffffffffffffffffffffffffffffffffffff168152602001838152602001828103825286818151815260200191508051906020019080838360005b838110156127f65780820151818401526020810190506127db565b50505050905090810190601f1680156128235780820380516001836020036101000a031916815260200191505b509550505050505060405180910390a15050505050505050565b600081831161284c578261284e565b815b905092915050565b604051806101000160405280600073ffffffffffffffffffffffffffffffffffffffff16815260200160006bffffffffffffffffffffffff16815260200160006fffffffffffffffffffffffffffffffff16815260200160006bffffffffffffffffffffffff168152602001600067ffffffffffffffff168152602001600073ffffffffffffffffffffffffffffffffffffffff168152602001600063ffffffff168152602001600063ffffffff168152509056fe4d617463686573207769746820676976656e206d617463684964206973206f63637570696564667574757265426c6f636b206d7573742062652067726561746572207468616e2063757272656e7420626c6f636b73656e7420616d6f756e74206d75737420626520657175616c7320746f206d617857696e6e696e675469636b6574202a207265776172645065725469636b65747265776172645065725469636b6574206d7573742062652067726561746572207468616e2030706c6179657220686173206e6f206465706f73697420616d6f756e7420666f722074686973206d617463686465706f73697456616c7565206d7573742062652067726561746572207468616e20306d617857696e6e696e675469636b6574206d7573742062652067726561746572207468616e20306465706f73697456616c75652073686f756c64206265206469766973626c65206279207469636b657450726963657469636b65745072696365206d7573742062652067726561746572207468616e20304d61746368206973206e6f74206f7665722c2063616c6c20746f207075626c6973685f6c6f74746572795f726573756c7420746f207075626c697368207469636b6574734e756d626572206f66207469636b657420706572206465706f7369742063616c6c2065786365656473626c6f636b4e756d626572206d7573742062652067726561746572207468616e20306c6f7765725f626f756e64206d757374206265206c657373207468616e2075707065725f626f756e64a265627a7a723158205f4410de5eb9b7433775de36185e18cf553bdf68c0cff979f18da6bcf9807d8764736f6c63430005100032",
  "source": "// SPDX-License-Identifier: MIT\npragma solidity >=0.4.22 <0.9.0;\n\ncontract Auction {\n    // constants\n    address constant ADDRESS_NULL = 0x0000000000000000000000000000000000000000;\n    uint    constant MAX_TICKET_PER_DEPOSIT = 5;\n    \n    // player data\n    struct Player {\n        // number of deposit;\n        uint224 depositAmount;\n        // number of ticket won\n        uint32 ticketWon;\n    }\n    \n    // match meta data\n    struct Match {\n        address creatorAdress; // 20 bytes\n        uint96  ticketReward;\n        uint128 totalReward;\n        uint96  ticketPrice;\n        uint64  expiryDate;\n        uint160 futureBlock;\n        uint32  winningCount;\n        uint32  maxWinning; \n    }\n    \n    // state data\n    // match id -> Match\n    mapping(string => Match) matches;\n    // tickets, [player1, player1, player2, player3, player3, ...]\n    mapping(string => address[]) tickets;\n    // player information for a match\n    mapping(string => mapping(address => Player)) players;\n    \n    // modifiers\n    modifier creatorOnly(address creatorAddress, string memory matchId) {\n        require(creatorAddress != ADDRESS_NULL && matches[matchId].creatorAdress == creatorAddress, \"Caller must be creator of this match\");\n        _;\n    }\n\n    modifier validMatch(string memory matchId) {\n        Match storage amatch = matches[matchId];\n        require(amatch.creatorAdress != ADDRESS_NULL, \"Creator is invalid\");\n        _;\n    }\n    \n    // modifier expiredMatch(string memory matchId) {\n    //     Match storage amatch = matches[matchId];\n    //     require(amatch.creatorAdress != ADDRESS_NULL, \"Creator is invalid\");\n    //     require(amatch.expiryDate < block.timestamp, \"Match must be expired to be deposited\");\n    //     _;\n    // }\n\n    // events\n    event DepositEvent(string matchId, address player, uint depositAmount, uint ticketCount);\n    event PublishedEvent(string matchId, address winner, uint winningOrder);\n    event CreateAuctionEvent(string matchId, address auctionCreator, uint maxWinning, uint ticketPrice, uint rewardPerTicket, string tokenName);\n    \n    // util functions\n    function min(uint x, uint y) private pure returns(uint){\n        return (x > y ? y : x);\n    }\n    \n    // util function \n    function randrange(uint lower_bound, uint upper_bound, uint blockNumber, address previousWinner) public view returns(uint) {\n        require(lower_bound < upper_bound, \"lower_bound must be less than upper_bound\");\n        require(blockNumber > 0, \"blockNumber must be greater than 0\");\n        // random number = futureBlock + previousWinner\n        return uint(keccak256(abi.encodePacked(blockhash(blockNumber-1), previousWinner))) % (upper_bound - lower_bound) + lower_bound;\n    }\n    \n    constructor() public{\n        \n    }\n    \n    // functions\n    function auction(string memory matchId, uint64 expiryDate, uint160 futureBlock, uint32 maxWinning, uint96 ticketPrice, uint96 rewardPerTicket) public payable {\n        // use SafeMath (not safeMoon T,T)\n        address creatorAdress = msg.sender;\n        uint128 totalReward = maxWinning * rewardPerTicket;\n        require(uint256(totalReward) == msg.value, \"sent amount must be equals to maxWinningTicket * rewardPerTicket\");\n        // check match validity:\n        // check occupied slot \n        // check expiryDate ( >= now)\n        // check future block is valid\n        // check rewardPerTicket\n        // check amount == rewardPerTicket * maxWinningTicket\n        require(matches[matchId].creatorAdress == ADDRESS_NULL, \"Matches with given matchId is occupied\");\n        require(expiryDate > block.timestamp, \"expiryDate must be in the future\");\n        require(futureBlock > block.number,   \"futureBlock must be greater than current block\");\n        require(rewardPerTicket > 0, \"rewardPerTicket must be greater than 0\");\n        require(maxWinning > 0, \"maxWinningTicket must be greater than 0\");\n        require(ticketPrice > 0, \"ticketPrice must be greater than 0\");\n        \n        // store match\n        matches[matchId] = Match(creatorAdress, rewardPerTicket, totalReward, ticketPrice, expiryDate, futureBlock, 0, maxWinning);\n        // emit creating auction event\n        \n        emit CreateAuctionEvent(matchId, creatorAdress, maxWinning, ticketPrice, rewardPerTicket, \"BAM\");\n    }\n\n    function deposit(string memory matchId) public payable validMatch(matchId) {\n        // check if sender amount is divisble by ticketPrice\n        // check if match limit reach \n        // store tickets and push to queue\n        Match memory amatch = matches[matchId];\n        \n        uint224 depositAmount = uint224(msg.value);\n        uint    ticketPrice   = amatch.ticketPrice;\n        address playerAddress = msg.sender;\n        uint    ticketCount = depositAmount / ticketPrice;\n        // // conditions\n        require(amatch.expiryDate > block.timestamp, \"Match is expired\");\n        require(depositAmount > 0, \"depositValue must be greater than 0\");\n        require(depositAmount % ticketPrice == 0, \"depositValue should be divisble by ticketPrice\");\n        require(ticketCount <= MAX_TICKET_PER_DEPOSIT, \"Number of ticket per deposit call exceeds\");\n        \n        // push\n        for(uint i = 0; i < ticketCount; ++i) {\n            // bad pratice\n            tickets[matchId].push(playerAddress);\n        }\n        players[matchId][playerAddress].depositAmount += depositAmount;\n        // // emit events\n        emit DepositEvent(matchId, playerAddress, depositAmount, ticketCount);\n    }\n\n    // // call this function to publish lottery result\n    // // if not enough winining ticket published, no one can withdraw money\n    function publish_lottery_result(string memory matchId) public {\n    \t// check auctionCreator, auctionId validity\n    \t// check if desired block generated\n    \t\n    \t// read match information\n        Match memory amatch = matches[matchId];\n    \tuint futureBlock    = amatch.futureBlock;\n    \tuint winningCount   = amatch.winningCount;\n    \t\n    \taddress[] storage matchTickets = tickets[matchId];\n    \t\n    \t// check: valid block \n    \t// check winningCount exceeds min(maxWinning or max ticket count)\n        // \trequire(block.number >= futureBlock, \"futureBlock is not generated\");\n    \trequire(winningCount < amatch.maxWinning, \"maxWinning reached\");\n    \t\n        address previousWinner = ADDRESS_NULL;\n    \tif (amatch.winningCount > 0) {\n    \t    previousWinner = matchTickets[winningCount - 1];\n    \t}\n    \t\n    \t// random next winner\n    \tuint nextWinner = uint(keccak256(abi.encodePacked(blockhash(futureBlock-1), previousWinner, block.difficulty))) % (matchTickets.length - winningCount) + winningCount;\n    \t\n    \t// locate winner address \n    \taddress winnerAddress = matchTickets[nextWinner];\n    \t\n    \t// swap winner to top to avoid being chosen again \n    \t(matchTickets[winningCount], matchTickets[nextWinner]) = (matchTickets[nextWinner], matchTickets[winningCount]);\n    \t\n    \t// increase ticketWon\n    \tplayers[matchId][winnerAddress].ticketWon ++;\n    \n    \t// increase number of win\n    \tmatches[matchId].winningCount ++;\n    \t\n    \t// emit events\n    \temit PublishedEvent(matchId, winnerAddress, matches[matchId].winningCount);\n    }\n\n    // withdraw the price\n    function withdraw(string memory matchId) public returns(bool) {\n        \n        Player storage player = players[matchId][msg.sender];\n        Match memory amatch = matches[matchId];\n        \n        // prevent withdrawal when maxWinning not reached\n        require(amatch.winningCount == min(amatch.maxWinning, tickets[matchId].length), \"Match is not over, call to publish_lottery_result to publish tickets\");\n        \n        // depositAmount\n        require(player.depositAmount > 0, \"player has no deposit amount for this match\");\n    \t\n    \t// TODO: Use safemath\n    \tuint224 depositAmount = player.depositAmount;\n    \tuint32 ticketWon = player.ticketWon;\n    \t// send win token first\n    \t// in case sending token fails, we just restore \n    \t\n    \t// TODO: Add ERC20 token here\n    \tif (ticketWon > 0) {\n    \t    \n    \t    player.ticketWon = 0;\n    \t    uint128 reward = ticketWon * matches[matchId].ticketReward;\n        \tif (!msg.sender.send(reward)) {\n        \t    // just recover \n        \t    player.ticketWon = ticketWon;\n        \t    // return if failed\n        \t    return false;\n        \t}\n        \t\n        \t// decrease totalReward \n        \tmatches[matchId].totalReward -= reward;\n        \t\n        \t// compute refund \n        \tplayer.depositAmount -= matches[matchId].ticketPrice * ticketWon;\n        \tdepositAmount = player.depositAmount;\n    \t}\n    \t\n    \tplayer.depositAmount = 0;\n    \tif (!msg.sender.send(depositAmount)) {\n    \t    // just restore \n    \t    player.depositAmount = depositAmount;\n    \t    // fail with full withdrawal\n    \t    return false;\n    \t}\n    \treturn true;\n    }\n}\n\n\n// TODO: Notice case where maxWinningTicket > number of ticket bought\n// function creatorWithdraw(string memory matchId) public creatorOnly(msg.sender, matchId) returns(bool){\n//     Match memory amatch = matches[matchId];\n//     // prevent withdrawal when maxWinning not reached\n//     require(amatch.winningCount > tickets[matchId].length, \"Match is not over, call to publish_lottery_result to publish tickets\");\n    \n//     uint totalReward = amatch.totalReward;\n//     require(amatch.totalReward > 0, \"Total reward must be larger than 0\");\n    \n//     // TODO: Use ERC20\n//     matches[matchId].totalReward = 0;\n//     if (!payable(msg.sender).send(totalReward)) {\n//         matches[matchId].totalReward = totalReward;\n//         return false;\n//     }\n//     return true;\n// }",
  "sourcePath": "/Users/tadangvinhphuc/projects/Auction/contracts/Auction.sol",
  "compiler": {
    "name": "solc",
    "version": "0.5.16+commit.9c3226ce.Emscripten.clang"
  },
  "schemaVersion": "3.2.3",
  "updatedAt": "2021-05-13T15:01:39.774Z",
  "devdoc": {
    "methods": {}
  },
  "userdoc": {
    "methods": {}
  }
}